{
  "_format": "hh-sol-artifact-1",
  "contractName": "ArticleReward",
  "sourceName": "contracts/ArticleReward.sol",
  "abi": [
    {
      "inputs": [
        {
          "internalType": "address",
          "name": "tokenAddress",
          "type": "address"
        }
      ],
      "stateMutability": "nonpayable",
      "type": "constructor"
    },
    {
      "anonymous": false,
      "inputs": [
        {
          "indexed": true,
          "internalType": "address",
          "name": "reader",
          "type": "address"
        },
        {
          "indexed": false,
          "internalType": "uint256",
          "name": "articleId",
          "type": "uint256"
        },
        {
          "indexed": false,
          "internalType": "uint256",
          "name": "rewardTokens",
          "type": "uint256"
        }
      ],
      "name": "ArticleRead",
      "type": "event"
    },
    {
      "inputs": [],
      "name": "articleToken",
      "outputs": [
        {
          "internalType": "contract IERC20",
          "name": "",
          "type": "address"
        }
      ],
      "stateMutability": "view",
      "type": "function"
    },
    {
      "inputs": [
        {
          "internalType": "address",
          "name": "",
          "type": "address"
        }
      ],
      "name": "articlesRead",
      "outputs": [
        {
          "internalType": "uint256",
          "name": "",
          "type": "uint256"
        }
      ],
      "stateMutability": "view",
      "type": "function"
    },
    {
      "inputs": [
        {
          "internalType": "address",
          "name": "",
          "type": "address"
        },
        {
          "internalType": "uint256",
          "name": "",
          "type": "uint256"
        }
      ],
      "name": "hasClaimed",
      "outputs": [
        {
          "internalType": "bool",
          "name": "",
          "type": "bool"
        }
      ],
      "stateMutability": "view",
      "type": "function"
    },
    {
      "inputs": [
        {
          "internalType": "uint256",
          "name": "articleId",
          "type": "uint256"
        }
      ],
      "name": "readArticle",
      "outputs": [],
      "stateMutability": "nonpayable",
      "type": "function"
    }
  ],
  "bytecode": "0x608060405234801561001057600080fd5b50604051610a72380380610a72833981810160405281019061003291906100db565b806000806101000a81548173ffffffffffffffffffffffffffffffffffffffff021916908373ffffffffffffffffffffffffffffffffffffffff16021790555050610108565b600080fd5b600073ffffffffffffffffffffffffffffffffffffffff82169050919050565b60006100a88261007d565b9050919050565b6100b88161009d565b81146100c357600080fd5b50565b6000815190506100d5816100af565b92915050565b6000602082840312156100f1576100f0610078565b5b60006100ff848285016100c6565b91505092915050565b61095b806101176000396000f3fe608060405234801561001057600080fd5b506004361061004c5760003560e01c8063218a413d146100515780635f2b4ad314610081578063b29310961461009d578063fcfd71cb146100cd575b600080fd5b61006b600480360381019061006691906104f2565b6100eb565b6040516100789190610538565b60405180910390f35b61009b6004803603810190610096919061057f565b610103565b005b6100b760048036038101906100b291906105ac565b61043c565b6040516100c49190610607565b60405180910390f35b6100d561046b565b6040516100e29190610681565b60405180910390f35b60016020528060005260406000206000915090505481565b600260003373ffffffffffffffffffffffffffffffffffffffff1673ffffffffffffffffffffffffffffffffffffffff168152602001908152602001600020600082815260200190815260200160002060009054906101000a900460ff16156101a1576040517f08c379a00000000000000000000000000000000000000000000000000000000081526004016101989061071f565b60405180910390fd5b60018060003373ffffffffffffffffffffffffffffffffffffffff1673ffffffffffffffffffffffffffffffffffffffff16815260200190815260200160002060008282546101f0919061076e565b925050819055506000678ac7230489e8000090508060008054906101000a900473ffffffffffffffffffffffffffffffffffffffff1673ffffffffffffffffffffffffffffffffffffffff166370a08231306040518263ffffffff1660e01b815260040161025e91906107b1565b602060405180830381865afa15801561027b573d6000803e3d6000fd5b505050506040513d601f19601f8201168201806040525081019061029f91906107e1565b10156102e0576040517f08c379a00000000000000000000000000000000000000000000000000000000081526004016102d79061085a565b60405180910390fd5b60008054906101000a900473ffffffffffffffffffffffffffffffffffffffff1673ffffffffffffffffffffffffffffffffffffffff1663a9059cbb33836040518363ffffffff1660e01b815260040161033b92919061087a565b6020604051808303816000875af115801561035a573d6000803e3d6000fd5b505050506040513d601f19601f8201168201806040525081019061037e91906108cf565b506001600260003373ffffffffffffffffffffffffffffffffffffffff1673ffffffffffffffffffffffffffffffffffffffff168152602001908152602001600020600084815260200190815260200160002060006101000a81548160ff0219169083151502179055503373ffffffffffffffffffffffffffffffffffffffff167fba7aedc2ca4d8a39ec42bc4296e78e65c8cdccd0c78f9cd314dbf05e2c48f84a83836040516104309291906108fc565b60405180910390a25050565b60026020528160005260406000206020528060005260406000206000915091509054906101000a900460ff1681565b60008054906101000a900473ffffffffffffffffffffffffffffffffffffffff1681565b600080fd5b600073ffffffffffffffffffffffffffffffffffffffff82169050919050565b60006104bf82610494565b9050919050565b6104cf816104b4565b81146104da57600080fd5b50565b6000813590506104ec816104c6565b92915050565b6000602082840312156105085761050761048f565b5b6000610516848285016104dd565b91505092915050565b6000819050919050565b6105328161051f565b82525050565b600060208201905061054d6000830184610529565b92915050565b61055c8161051f565b811461056757600080fd5b50565b60008135905061057981610553565b92915050565b6000602082840312156105955761059461048f565b5b60006105a38482850161056a565b91505092915050565b600080604083850312156105c3576105c261048f565b5b60006105d1858286016104dd565b92505060206105e28582860161056a565b9150509250929050565b60008115159050919050565b610601816105ec565b82525050565b600060208201905061061c60008301846105f8565b92915050565b6000819050919050565b600061064761064261063d84610494565b610622565b610494565b9050919050565b60006106598261062c565b9050919050565b600061066b8261064e565b9050919050565b61067b81610660565b82525050565b60006020820190506106966000830184610672565b92915050565b600082825260208201905092915050565b7f52657761726420616c726561647920636c61696d656420666f7220746869732060008201527f61727469636c6500000000000000000000000000000000000000000000000000602082015250565b600061070960278361069c565b9150610714826106ad565b604082019050919050565b60006020820190508181036000830152610738816106fc565b9050919050565b7f4e487b7100000000000000000000000000000000000000000000000000000000600052601160045260246000fd5b60006107798261051f565b91506107848361051f565b925082820190508082111561079c5761079b61073f565b5b92915050565b6107ab816104b4565b82525050565b60006020820190506107c660008301846107a2565b92915050565b6000815190506107db81610553565b92915050565b6000602082840312156107f7576107f661048f565b5b6000610805848285016107cc565b91505092915050565b7f4e6f7420656e6f75676820746f6b656e7320696e20636f6e7472616374000000600082015250565b6000610844601d8361069c565b915061084f8261080e565b602082019050919050565b6000602082019050818103600083015261087381610837565b9050919050565b600060408201905061088f60008301856107a2565b61089c6020830184610529565b9392505050565b6108ac816105ec565b81146108b757600080fd5b50565b6000815190506108c9816108a3565b92915050565b6000602082840312156108e5576108e461048f565b5b60006108f3848285016108ba565b91505092915050565b60006040820190506109116000830185610529565b61091e6020830184610529565b939250505056fea2646970667358221220c7cbbb2ca91a3d7a228fa4cbb36fd070cb4498cd684b0e39939e27f87060cfb664736f6c63430008180033",
  "linkReferences": {},
  "deployedLinkReferences": {}
}